:020000040800F2
:10000000D0060020CD010008BD0B00087B0B0008C6
:10001000B90B000825060008F919000800000000C7
:10002000000000000000000000000000B50D000806
:10003000E708000800000000450C0008C90E000891
:10004000E7010008E7010008E7010008E7010008F0
:10005000E7010008E7010008E7010008E7010008E0
:10006000E7010008E7010008E7010008D5060008DD
:10007000E7010008E7010008E7010008E7010008C0
:10008000E7010008E7010008E7010008E7010008B0
:10009000E7010008E7010008E7010008E7010008A0
:1000A000E7010008E7010008E7010008E701000890
:1000B000E7010008E70100086D110008E7010008EA
:1000C000E7010008E7010008E7010008E701000870
:1000D000E701000821170008E7010008E701000810
:1000E000E9080008E7010008E7010008E701000847
:1000F000E7010008E7010008E7010008E701000840
:10010000E7010008E7010008E7010008E70100082F
:10011000E7010008E7010008E7010008E70100081F
:10012000E7010008E7010008E7010008E70100080F
:1001300000F002F800F03AF80AA090E8000C8244BF
:100140008344AAF10107DA4501D100F02FF8AFF29C
:10015000090EBAE80F0013F0010F18BFFB1A43F0A5
:1001600001031847B8190000D8190000103A24BF3D
:1001700078C878C1FAD8520724BF30C830C144BF0C
:1001800004680C607047000000230024002500264E
:10019000103A28BF78C1FBD8520728BF30C148BFEA
:1001A0000B6070471FB51FBD10B510BD00F031F8D2
:1001B0001146FFF7F7FF01F069FC00F04FF803B4B8
:1001C000FFF7F2FF03BC00F057F800000948804732
:1001D00009480047FEE7FEE7FEE7FEE7FEE7FEE729
:1001E000FEE7FEE7FEE7FEE704480549054A064B41
:1001F00070470000CD0E000831010008D00000203B
:10020000D0060020D0020020D002002070477047A6
:100210007047754600F02CF8AE4605006946534617
:1002200020F00700854618B020B5FFF7DDFFBDE8D8
:1002300020404FF000064FF000074FF000084FF04D
:10024000000B21F00701AC46ACE8C009ACE8C009DE
:10025000ACE8C009ACE8C0098D46704710B504464B
:10026000AFF300802046BDE81040FFF7A8BF0000B4
:10027000004870476C00002001491820ABBEFEE723
:1002800026000200704721B1826842F001028260BC
:1002900003E0826822F001028260704721B1826827
:1002A00042F48072826003E0826822F4807282608D
:1002B000704710B504460021204600F023FA322191
:1002C000204600F00EFB0121204600F01BFA10BD75
:1002D00010B50446204600F0D7F800BF204600F0D5
:1002E00045F80028FAD1204600F0DEF800BF20468D
:1002F00000F032F80028FAD110BD000010B5044615
:100300001248844208D10121401500F0D9FC002197
:10031000601500F0D5FC17E00D48844208D101219A
:10032000001500F0CDFC0021201500F0C9FC0BE009
:100330000848844208D10121C80300F0C1FC002113
:100340004FF4004000F0BCFC10BD00000024014050
:1003500000280140003C0140014600208A6802F06C
:1003600004020AB1012000E000207047014600208D
:100370008A6802F008020AB1012000E000207047FC
:1003800030B502460020002350680F4C20400D7904
:100390000C6844EA05242043506090680B4C2040D0
:1003A000D1E902542C434D7944EA4504204390603E
:1003B000D06A20F470000C7C641EE4B2234340EA4F
:1003C0000350D06230BD0000FFFEF0FFFDF7F1FFEB
:1003D000F0B504460D4600200021092D11DDE0682E
:1003E000A5F10A0606EB4607072606FA07F1884339
:1003F000A5F10A0606EB460603FA06F10843E0609B
:100400000CE0206905EB4507072606FA07F188434B
:1004100005EB450603FA06F108432061072A0FDAC7
:10042000606B561E06EB86071F2606FA07F1884307
:10043000561E06EB860605FA06F10843606322E0C5
:100440000D2A0FDA206BD61F06EB86071F2606FA49
:1004500007F18843D61F06EB860605FA06F1084326
:10046000206310E0E06AA2F10D0606EB86071F2666
:1004700006FA07F18843A2F10D0606EB860605FA97
:1004800006F10843E062F0BD816841F00801816037
:10049000704721B1826842F4A002826003E0826862
:1004A00022F4A00282607047816841F004018160FB
:1004B0007047000008B50121042000F0F1FB002086
:1004C0008DF803004020ADF800006946014800F0B7
:1004D000C7FA08BD0008014000B591B001214802EB
:1004E00000F0DEFB0121084600F0BAFB4FF40040AB
:1004F00000F0AAFBFFF7DEFF2B48FFF7FFFE00200E
:100500008DF835000F904FF460200E9000200C9075
:1005100001208DF8400000208DF834000CA92248FD
:10052000FFF72EFF01212048FFF7ADFE1E48FFF721
:10053000CFFE0723012206211B48FFF749FF0121B7
:100540001948FFF7A6FF194800F0E8F816484C30A4
:100550000190174802901020039032200490002050
:1005600005908020069000200790089009904FF495
:1005700080500A9000200B9001A90C4800F093F9DC
:1005800001220221094800F085F90B208DF80000B6
:1005900001208DF803008DF801008DF802006846F7
:1005A00000F00EFB11B000BD002401400800024025
:1005B0003400002010B50448FFF77BFE01210348FA
:1005C000FFF76CFE10BD000008000240002401404F
:1005D0000146084A127802F080024AB1054A1278B0
:1005E00002F03F024A4390B2034A1288024490B29A
:1005F00070470000300000203200002070B540F24B
:100600002D1615B1601CC4B201E0601EC4B2B44224
:1006100000D1002504B9012521464FF0804000F0AB
:10062000F3FE70BD00BFFEE730B589B004460D464D
:100630000121082000F034FB0121042000F020FB00
:1006400028208DF823004FF48070ADF8200003209F
:100650008DF8220008A91D4800F002FA0020ADF82C
:100660001A00ADF81600ADF81850ADF8144005A901
:10067000174800F0F9FE0820ADF808000120ADF899
:1006800010000020ADF80A00ADF80E00ADF80C0027
:1006900002A90F4800F0F6FD012209210C4800F0E4
:1006A00047FE1E208DF8040001208DF807008DF80C
:1006B000050000208DF8060001A800F081FA012154
:1006C000034800F0BEFD09B030BD0000000C014041
:1006D0000008004010B5022000F0C6F810B102205A
:1006E00000F002F810BD000000F0805111B1034984
:1006F000086001E0024948607047000004040240BD
:100700000000024021B1026842F00102026004E0F0
:1007100002684FF6FE731A400260704701684FF698
:10072000FE72114001600021016041608160C16082
:100730004B49884208D14A490839496841F00F01BC
:10074000474A083A51608AE045491431884208D145
:1007500043490839496841F0F001414A083A51607B
:100760007DE03F492831884208D13D490839496830
:1007700041F470613A4A083A516070E038493C31BE
:10078000884208D136490839496841F47041344AF1
:10079000083A516063E032495031884208D130490B
:1007A0000839496841F470212D4A083A516056E0F1
:1007B0002B496431884208D129490839496841F4F4
:1007C0007001274A083A516049E02549783188424A
:1007D00008D123490839496841F07061204A083A34
:1007E00051603CE01F49884206D1011F096841F071
:1007F0000F01021F116032E01A491431884208D1FA
:100800001849091F096841F0F001164A121F1160CA
:1008100025E014492831884208D11249091F096886
:1008200041F470610F4A121F116018E00D493C310C
:10083000884208D10B49091F096841F47041094AEF
:10084000121F11600BE007495031884207D105495A
:10085000091F096841F47021024A121F1160704794
:10086000080002400804024001460020002201F076
:10087000805313B1054B1A6801E0054B1A6802EA70
:1008800001030BB1012000E000207047000402408A
:10089000000002401AB103680B43036002E00368E2
:1008A0008B430360704710B50022026847F6F0736F
:1008B0009A430C6A8B6823430C6923434C69234396
:1008C0008C692343CC6923434C6A23438C6A2343BA
:1008D0001A430260CB6843600B6883604B68C36057
:1008E00010BD41607047704710B54FF4805000F064
:1008F00009F820B1642001F0A3F80148006810BD98
:100900003081214201460020034A12680A400AB1A0
:10091000012000E000207047140401400021234919
:100920008279002A3AD00A46126803689A430B4635
:100930001A600A1D126803689A430B1D1A60027937
:1009400011440A6803681A430A60184A0832126898
:1009500003689A43154B08331A601A1D126803681E
:100960009A43124B0C331A604279102A0ED11A1F87
:10097000126803681A430D4B08331A601A1D126877
:1009800003681A43094B0C331A600DE0074942799A
:1009900011440A6803681A430A6005E002791144A9
:1009A0000A6803689A430A60704700000004014027
:1009B0001FB50121092000F073F90C21012000F07E
:1009C0002FF828208DF80F004FF48050ADF80C0060
:1009D00003208DF80E0003A9104800F041F84FF4F1
:1009E0008050019001208DF80A0000208DF8080049
:1009F0000C208DF8090001A8FFF790FF28208DF842
:100A0000000001208DF8030002208DF801008DF810
:100A10000200684600F0D4F81FBD0000000C014041
:100A200030B500228B071C0F0F2303FA04F20B4B87
:100A30008C1053F824309343084C8D1044F8253023
:100A400023468C1053F824308C07240F00FA04F44A
:100A50002343024C8D1044F8253030BD080001407E
:100A60002DE9F04102460025002600200023002445
:100A7000002791F803C00CF00F0591F803C00CF0AB
:100A8000100CBCF1000F03D091F802C04CEA050530
:100A900091F800C0BCF1000F31D0146800202BE0A9
:100AA0004FF0010C0CFA00F3B1F800C00CEA030699
:100AB0009E4220D183004FF00F0C0CFA03F7BC4389
:100AC00005FA03FC4CEA040491F803C0BCF1280FBA
:100AD00006D14FF0010C0CFA00FCC2F814C00AE079
:100AE00091F803C0BCF1480F05D14FF0010C0CFA8E
:100AF00000FCC2F810C0401C0828D1D31460B1F823
:100B000000C0BCF1FF0F34DD546800202EE000F17E
:100B1000080C4FF0010808FA0CF3B1F800C00CEA19
:100B200003069E4221D183004FF00F0C0CFA03F70D
:100B3000BC4305FA03FC4CEA040491F803C0BCF181
:100B4000280F05D100F1080C08FA0CF8C2F814803F
:100B500091F803C0BCF1480F07D100F1080C4FF029
:100B6000010808FA0CF8C2F81080401C0828CED3FF
:100B70005460BDE8F0810161704700BFFEE70000EE
:100B800008B50121082000F08BF810208DF8030033
:100B9000C020ADF8000003208DF80200694605482A
:100BA000FFF75EFF0A2000F04BFFC0210148FFF76E
:100BB000E2FF08BD000C014000BFFEE770470000E7
:100BC00070B5002100230F22C47804B3154C2468AB
:100BD00004F4E064C4F5E064210AC1F10403CA40EE
:100BE000447804FA03F184781440214309010E4C3F
:100BF0000678A155047804F01F050124AC4005785F
:100C00006D11AD0005F1E025C5F8004109E004785B
:100C100004F01F050124AC40044D0678761145F818
:100C2000264070BD0CED00E000E400E080E100E053
:100C300002490143024A1160704700000000FA05B2
:100C40000CED00E07047000001460020034A5068A8
:100C500020F44040084350607047000000100240FC
:100C600029B1064A52690243044B5A6104E0034A1F
:100C700052698243014B5A617047000000100240E4
:100C800029B1064AD2690243044BDA6104E0034AFF
:100C9000D2698243014BDA617047000000100240C4
:100CA00029B1064A92690243044B9A6104E0034A5F
:100CB00092698243014B9A61704700000010024024
:100CC00029B1064AD2680243044BDA6004E0034AC1
:100CD000D2688243014BDA60704700000010024086
:100CE00030B500210022002400232D4D6D6805F051
:100CF0000C0121B1042905D0082923D105E0294D93
:100D0000056022E0274D05601FE0254D6D6805F464
:100D10007012234D6D6805F48034022505EB924274
:100D20001CB9214D554305600BE01D4D6D6805F460
:100D300000351DB11C4D5543056002E0194D55436A
:100D4000056002E0174D056000BF00BF144D6D68DF
:100D500005F0F0010909154D6B5C0568DD40456043
:100D60000F4D6D6805F4E061090A104D6B5C456834
:100D7000DD4085600A4D6D6805F46051C90A0B4D70
:100D80006B5C4568DD40C560054D6D6805F440410C
:100D9000890B074D6B5CC568B5FBF3F5056130BD8C
:100DA0000010024000127A0000093D0014000020EB
:100DB00024000020704710B500F002F810BD0000BC
:100DC0000CB50020019000903348006840F480305A
:100DD0003149086000BF3048006800F400300090DE
:100DE0000198401C0190009818B90198B0F5A06FC7
:100DF000F1D12948006800F4003010B101200090C2
:100E000001E0002000900098012843D123480068A9
:100E100040F01000214908600846006820F00300F7
:100E200008600846006840F0020008601A48406800
:100E3000194948600846406848600846406840F4E0
:100E4000806048600846406820F47C10486008468E
:100E5000406840F4E81048600846006840F0807040
:100E6000086000BF0C48006800F000700028F9D04E
:100E70000948406820F00300074948600846406878
:100E800040F00200486000BF0348406800F00C00DA
:100E90000828F9D10CBD00000010024000200240DB
:100EA000042808D14FF0E021096941F004014FF016
:100EB000E022116107E04FF0E021096921F004010F
:100EC0004FF0E022116170477047000010B51348E1
:100ED000006840F001001149086008464068104968
:100EE00008400E494860084600680E4908400B4912
:100EF00008600846006820F48020086008464068C2
:100F000020F4FE0048604FF41F008860FFF753FF95
:100F10004FF000600449086010BD0000001002405E
:100F20000000FFF8FFFFF6FE08ED00E0F0B50C460C
:100F3000154600220021068C4FF6FE773E400684BF
:100F4000028B018C4FF60C7632407E1C06EA0316AB
:100F50002E433243104EB0420ED0104EB0420BD052
:100F6000B0F1804F08D00E4EB04205D00D4EB042C9
:100F700002D00D4EB04206D14FF6FD76314044F01E
:100F80000106314305E04FF6F576314044F00106A5
:100F9000314302830184F0BD002C01400034014044
:100FA0000004004000080040000C0040F0B50C4672
:100FB0001546002200210026078C4FF6EF7C07EA39
:100FC0000C070784028B018C4FF6FF7707EA0416A3
:100FD00040F6FF473A404FF6FF7707EA03373A43B8
:100FE0004FF6FF7707EA05273A43114FB8420ED074
:100FF000104FB8420BD0B0F1804F08D00E4FB8421E
:1010000005D00E4FB84202D00D4FB84206D14FF670
:10101000DF77394046F01007394305E04FF65F7738
:10102000394044F01007394302830184F0BD0000C9
:10103000002C014000340140000400400008004042
:10104000000C0040F0B50C46154600220021002699
:10105000078C4FF6FF6C07EA0C070784828B018C24
:101060004FF6FF7707EA04264FF60C773A404FF623
:10107000FF7707EA03172F433A43114FB8420ED0C8
:10108000104FB8420BD0B0F1804F08D00E4FB8428D
:1010900005D00E4FB84202D00D4FB84206D14FF6E0
:1010A000FF57394046F48077394305E04FF2FF5748
:1010B000394044F48077394382830184F0BD0000D5
:1010C000002C0140003401400004004000080040B2
:1010D000000C0040F0B50C46154600220021002609
:1010E000078C4EF6FF7C07EA0C070784828B018C85
:1010F0004FF6FF7707EA043640F6FF473A404FF6CF
:10110000FF7707EA05273A434FF6FF7707EA0337E9
:101110003A43114FB8420ED0104FB8420BD0B0F145
:10112000804F08D00E4FB84205D00E4FB84202D0C3
:101130000D4FB84206D14DF6FF77394046F480573F
:10114000394305E047F6FF57394044F480573943A7
:1011500082830184F0BD0000002C01400034014076
:101160000004004000080040000C004010B50821B9
:10117000294800F075F82948007800F0400078B15F
:101180002648007840F0800024490870224800F08A
:1011900064F82349088000211F4800F028F911E075
:1011A00000201F4908801D4908700846007840F05B
:1011B000400008700021184800F028F90221164864
:1011C00000F015F90121144800F04AF8F8B113486D
:1011D000007800F08000D0B91048007800F040009E
:1011E000A8B10E48007800F03F003F280AD10B4814
:1011F000007840F08000094908704FF6FF700849F8
:10120000088004E005480078401C04490870092162
:10121000014800F013F810BD000800403000002025
:101220003200002021B1028842F08002028004E0F6
:1012300002884FF67F731A4002807047CA430282C9
:10124000704721B1028842F00102028004E0028866
:101250004FF6FE731A40028070470146888F704730
:1012600030B50246002000230024158A05EA010358
:10127000958905EA010413B10CB1012000E00020BA
:1012800030BD000070B505460C46244885420ED09E
:10129000234885420BD0B5F1804F08D021488542C4
:1012A00005D02148854202D02048854200D100E087
:1012B00000BF208850B92389A28861882846FFF79B
:1012C00035FEE188284600F0A3F825E020880428B0
:1012D0000AD12389A28861882846FFF767FEE18842
:1012E000284600F09EF817E0208808280AD12389B4
:1012F000A28861882846FFF7A5FEE188284600F00D
:101300009DF809E02389A28861882846FFF7E2FE5C
:10131000E188284600F09BF870BD0000002C0140D9
:10132000003401400004004000080040000C004070
:101330001AB183890B43838102E083898B438381C4
:101340007047000070B5002400220023058C4FF682
:10135000FE7635400584028C8388048B4FF68F75AA
:101360002C40B51E2C400D882C43751E2A400D893B
:101370002A434D882A43144DA8420BD0134DA8424E
:1013800008D0134DA84205D0124DA84202D0124DEC
:10139000A84213D14FF6F7752A404D892A434FF6DC
:1013A000FB752A408D882A434FF6FF652B404FF688
:1013B000FF552B408D892B43CD892B43838004839C
:1013C000CD888586028470BD002C01400034014028
:1013D0000040014000440140004801400A4600210D
:1013E000018C4FF6FD7319401143018470470A4682
:1013F0000021018C4FF6FF5319404FF6FF7303EAAB
:1014000002231943018470478186704781847047A5
:10141000028B4FF6F3731A400283028B0A43028356
:101420007047028B4FF2FF331A400283028B4FF654
:10143000FF7303EA01231A4302837047828B4FF63E
:10144000F3731A408283828B0A4382837047828BB4
:101450004FF2FF331A408283828B4FF6FF7303EA09
:1014600001231A4382837047002202881D4B984251
:101470000ED01D4B98420BD0B0F1804F08D01B4BC3
:10148000984205D01A4B984202D01A4B984204D188
:101490004FF68F731A404B881A43174B984207D068
:1014A000164B984204D04FF6FF431A40CB881A439C
:1014B00002808B8883850B8803850A4B98420BD06A
:1014C000094B984208D00E4B984205D00D4B9842DC
:1014D00002D00D4B984201D10B7A038601238382FF
:1014E00070470000002C014000340140000400401F
:1014F00000080040000C00400010004000140040B4
:101500000040014000440140004801407FB50446CE
:101510000D4601210846FFF7B3FB0020ADF80A0095
:10152000ADF80600ADF80850ADF8044001A90E482A
:10153000FFF79AFF012211460B48FFF7F9FE1C2026
:101540008DF8000001208DF8030002208DF80100C5
:1015500000208DF802006846FFF732FB01210248A7
:10156000FFF76FFE7FBD00000004004030B589B07A
:1015700004460D4601210846FFF782FB01210420A5
:10158000FFF78EFB18208DF823000120ADF8200016
:1015900003208DF8220008A91448FFF761FA002003
:1015A000ADF81600ADF81A00ADF81850ADF81440BB
:1015B00005A94FF08040FFF757FF6020ADF8040009
:1015C0000120ADF806000020ADF80C0001A94FF095
:1015D0008040FFF7B7FE00214FF08040FFF7FEFE8E
:1015E00001218807FFF71EFE09B030BD0008014049
:1015F00010B5044600212046FFF784F8322120462A
:10160000FFF76FF901212046FFF77CF810BDF0B518
:101610008BB007460C4615461E4601210846FFF7CB
:101620001FFB3846FFF77AF80094019510200290CE
:1016300003960020049080200590002006900790DB
:1016400008904FF48050099000200A90694638466F
:10165000FFF729F90BB0F0BD10B50448FFF7C8FF3C
:1016600001228021024800F0C3F810BD440002406E
:101670000038014010B586B0044601210420FFF770
:101680000FFB01218803FFF70BFB18208DF81700D3
:101690004FF40070ADF8140003208DF8160005A972
:1016A0001D48FFF7DDF904208DF817000002ADF8A2
:1016B000140003208DF8160005A91748FFF7D0F98C
:1016C00001940020ADF810000C20ADF80E000020B1
:1016D000ADF80C00ADF80A00ADF8080001A90F48FC
:1016E00000F0ECF8012240F225510C4800F0C0F85F
:1016F00025208DF8000001208DF803008DF80100F1
:1017000002208DF802006846FFF75AFA01210348CB
:1017100000F062F806B010BD00080140003801403A
:1017200010B540F225511D4800F078F818B31B4859
:1017300000F030F9C4B21A48008800F40040D0B973
:101740001748008800F4804060B10A2C06D1144884
:10175000008840F40040124908801EE00020104933
:1017600008801AE004F00D0030B10D48008840F404
:1017700080400B49088010E009480088C0F30D0044
:1017800008490C5406480088401C05490880084652
:101790000088C72801DD0020088010BD0038014006
:1017A0002E0000202C00002001F40072B2F5007F12
:1017B00000D100BFCA430280704710B50022002349
:1017C00040F66A14A14200D100BF0A1201249440DD
:1017D000A3B2DC43048010BD21B1828942F40052DF
:1017E000828104E082894DF6FF731A40828170473E
:1017F0001AB1838A0B43838202E0838A8B438382FC
:10180000704702460020B1F5007F00D100BF138869
:101810000B400BB1012000E00020704770B502467C
:10182000002400230025002040F66A16B14200D1B2
:1018300000BFC1F3421501F01F03012606FA03F3AE
:10184000012D02D19689334006E0022D02D1168A7D
:10185000334001E0968A33400C12012606FA04F464
:101860001688344013B10CB1012000E0002070BD97
:10187000F0B50346002400260025002040F66A1734
:10188000B94200D100BF1846C1F3421401F01F064F
:10189000012707FA06F5012C01D10C3004E0022CD7
:1018A00001D1103000E014301AB107682F430760EF
:1018B00002E00768AF430760F0BD00002DE9F04784
:1018C00086B005460E460024A24600BFA14600276A
:1018D000B08900B100BF2F462C8A4CF6FF7004403F
:1018E000F08804432C82AC894EF6F3100440B08893
:1018F00031890843718908430443AC81AC8A4FF6AF
:10190000FF400440B0890443AC8201A8FFF7E8F926
:101910001F48874202D1DDF810A001E0DDF80CA0DD
:10192000A88900F4004040B10AEBCA0000EB0A109D
:1019300031684900B0FBF1F807E00AEBCA0000EBA0
:101940000A1031688900B0FBF1F86420B8FBF0F0B0
:1019500004012009642101FB1089A88900F40040DA
:1019600040B1322000EBC900B0FBF1F000F00700FD
:10197000044308E0322000EB09106421B0FBF1F0D1
:1019800000F00F0004432C8106B0BDE8F087000092
:101990000038014001468888C0F308007047C1F351
:1019A000080282807047000070B504460D46402151
:1019B0001048FFF7F9FE80210E48FFF7FEFE13E006
:1019C00021780C48FFF7EBFF00BF40210948FFF7E3
:1019D00018FF0128F9D140210648FFF7E5FE8021D4
:1019E0000448FFF7EAFE641C281EA5F101018DB230
:1019F000E6D170BD0038014000BFFEE710B56FF0C2
:101A00000400FFF74DFA0A4800680A49B0FBF1F0FC
:101A1000094908700846007800EB4001C1EBC0108E
:101A20004FF6FF7101EAC0000449088010BD0000B4
:101A30000000002000127A00280000202A00002068
:101A40000146114A12884A434FF0E0235A610022AE
:101A50009A611A46126942F001021A6100BF4FF002
:101A6000E022106900F001021AB100F48032002A6D
:101A7000F5D04FF0E022126922F001024FF0E0238E
:101A80001A6100229A6170472A0000204FF4A0607A
:101A9000FFF7CEF84FF4E130FFF7ECFDFFF770F8F9
:101AA00041F61F4141F28730FFF730FDFEF780FF1E
:101AB00041F61F4140F6B730FFF758FD47214FF67A
:101AC000FF70FEF7B1FDFFF799FF32230E4A0F4971
:101AD0000F48FFF79CFDFEF7EDFCFEF7FDFC11E063
:101AE0000C480088C0F30D0421460B48FFF75CFF4B
:101AF000FEF784FD4FF6FF70FEF76AFDFFF7ACFDC1
:101B0000FEF758FDECE700003800002004380140E3
:101B1000440002402E0000202C0000203C1B000846
:101B200000000020380000006C010008741B000851
:101B300038000020980600008801000800A24A042E
:101B4000000000000000000001020304060708096D
:101B50000000000001020304010203040607080953
:101B60000204060800000000000000000000000061
:041B70000000000071
:0400000508000131BD
:00000001FF
